:1000000024C048C047C046C045C044C043C042C0E9
:1000100041C040C03FC0D3C53DC03CC03BC03AC05A
:1000200039C038C037C036C035C034C037C611C635
:1000300031C030C02FC02EC02DC062C601020408DE
:100040001020408004020108D40711241FBECFEF06
:10005000D2E0DEBFCDBF11E0A0E0B1E0E0E4FFE11F
:1000600002C005900D92AE35B107D9F722E0AEE59A
:10007000B1E001C01D92AB32B207E1F710E0C5E27A
:10008000D0E003C02197FE015FDDC432D107D1F774
:10009000CAD754CFB5CFEEE3F0E0E4919E2F909510
:1000A00081110CC02FB7F8948BB389238BBB80913F
:1000B00063009823909363002FBF08958FB7F8943F
:1000C0002BB3E22BEBBB2091630092239093630050
:1000D0008FBF0895FC01538D448D252F30E0842F70
:1000E00090E0821B930B541710F00F960895019720
:1000F0000895FC01918D828D981761F0A28DAE0F4D
:10010000BF2FB11D5D968C91928D9F5F9F70928FD6
:1001100090E008958FEF9FEF0895FC01918D828DFF
:10012000981731F0828DE80FF11D858D90E00895CC
:100130008FEF9FEF0895FC01918D228D892F90E024
:100140004096821B91098F7099270895FC01A48D18
:10015000A80FB92FB11D9D962C91848D90E001962A
:100160008F709927848FA689B7892C93A089B1892C
:100170008C91837080648C93938D848D981306C0CA
:100180000288F389E02D80818F7D80830895EF922E
:10019000FF920F931F93CF93DF93EC0181E0888F41
:1001A0009B8D8C8D98131AC0E889F989808185FF11
:1001B00015C09FB7F894EE89FF896083E889F989B3
:1001C00080818370806480839FBF81E090E0DF91B5
:1001D000CF911F910F91FF90EF900895F62E0B8D08
:1001E00010E00F5F1F4F0F701127E02E8C8D8E11C6
:1001F0000BC00FB607FCFACFE889F989808185FF2B
:10020000F5CFCE01A3DFF2CFEB8DEC0FFD2FF11D6B
:10021000F5A69FB7F8940B8FEA89FB8980818062ED
:10022000D2CFCF93DF93EC01888D8823B1F0AA89D8
:10023000BB89E889F9898C9185FD03C0808186FDA1
:100240000CC00FB607FCF7CF8C9185FFF2CF8081F1
:1002500085FFEDCFCE017ADFEACFDF91CF91089510
:10026000E82FF0E0E45CFF4FE4918E2F80952FB7EC
:1002700061110EC0F8949AB398239ABB9BB398234C
:100280009BBB909163008923809363002FBF0895E7
:10029000623069F4F8949AB389238ABB8BB38E2BAE
:1002A0008BBB80916300E82BE0936300EFCFF89461
:1002B000909163008923809363008AB3E82BEABBA3
:1002C000E5CF98B19F7198B999B1907C892B89B984
:1002D0002E9A2E99FECF86B197B10895CF92DF92D4
:1002E000EF92FF920F931F93CF93DF936C01EB017B
:1002F0007B01E40EF51E10E000E0CE15DF0561F095
:100300006991D601ED91FC910190F081E02DC6013B
:100310000995080F191FF1CFC801DF91CF911F91E7
:100320000F91FF90EF90DF90CF900895CF93DF93E0
:10033000DC011C96ED91FC9126A137A120323105FC
:1003400010F5A6A1B7A1C6A1D7A120E230E02A1BD3
:100350003B0B4217530708F49A01DB01EC0FFD1F1A
:10036000B9016E0F7F1FE617F70719F04D91419302
:10037000FACFDC011C96ED91FC9186A197A1280F84
:10038000391F37A326A3DF91CF910895DC011C9676
:10039000ED91FC9186A197A1809768F486A197A121
:1003A0009C012F5F3F4F37A326A3E80FF91F6083FF
:1003B00081E090E0089590E080E008950895DC01E8
:1003C0001C96ED91FC9120A131A182A193A1281747
:1003D000390738F480A191A1E80FF91F808190E0DE
:1003E00008958FEF9FEF0895DC011C96ED91FC912D
:1003F00020A131A182A193A12817390760F480A11F
:1004000091A19C012F5F3F4F31A320A3E80FF91F5B
:10041000808190E008958FEF9FEF0895DC011C9696
:10042000ED91FC9182A193A120A131A1821B930B9C
:1004300008950F931F93CF93DF938C01D0E0C0E01A
:10044000C017D10774F48EED91E0C530D1053CF4AE
:10045000CBDFFE01E15AFE4F80832196F1CFC4DF4E
:10046000FCCF0130110581F480915F01823138F4B5
:1004700080935E01DF91CF911F910F9108951092AB
:100480005F0110925E01F6CF023011059CF32091BE
:100490005F01EFE5F1E00150110930E02F553140E7
:1004A000C2E1D0E0CF018F5591408017910764F4ED
:1004B000C9018E0F9F1FBE0133DBDC01AF5FBE4F52
:1004C00081818C933196EECF81E080936401D2CF0D
:1004D0000F931F93CF93C0915E010C2F10E00F5F1D
:1004E0001E4FC23140F4F80161918F018EED91E011
:1004F0004DDFCF5FF6CFCF911F910F91089530E080
:1005000020E097FD07C09C01813441E0940714F07E
:1005100020E431E039BD28BDBC01990F880B990B4F
:1005200024E630E040E050E067D920E431E040E0EC
:1005300050E07BD920930F010895FC010190002029
:10054000E9F73197AF01481B590BBC018EE691E0EA
:10055000C5CE8F929F92AF92BF92EF92FF920F9370
:100560001F93CF93DF93CDB7DEB7A1970FB6F89463
:10057000DEBF0FBECDBF162F042F19A2423008F4E4
:100580000AE07E0121E2E20EF11C802E912CB12CBA
:10059000A12C612FA50194019BD9802F622F23D913
:1005A000181B1A3014F5105DF70112937F01122FFA
:1005B000732FCA01232B242B252B59F790E080E0C1
:1005C000309711F0CF01B9DFA1960FB6F894DEBFD6
:1005D0000FBECDBFDF91CF911F910F91FF90EF9094
:1005E000BF90AF909F908F900895195CDDCF4F9290
:1005F0005F926F927F928F929F92AF92BF92CF92B3
:10060000DF92EF92FF920F931F93CF936B017C01C8
:10061000742EAC019B0180DA882391F08BE391E08A
:10062000CF911F910F91FF90EF90DF90CF90BF90EF
:10063000AF909F908F907F906F905F904F907DCF05
:1006400046015701E894B7F82FEF3FEF4FE75FE718
:10065000C501B40161DA81110CC02FEF3FEF4FE704
:100660005FE7C501B40188D718161CF48FE391E049
:10067000D7CF2FEF3FEF4FE75FE4C701B60148DA6E
:1006800018161CF483E491E0CBCF2FEF3FEF4FE738
:100690005FECC701B60170D787FDF4CF20E030E0F2
:1006A000A901C701B60168D710E000E087FF09C0C3
:1006B0006DE28EE691E06BDD8C01F7FAF094F7F8CD
:1006C000F094C0E060E070E080E09FE37C1639F0D9
:1006D00020E030E040E251E482D9CF5FF7CFA701BC
:1006E000960119D92B013C01E7D94B015C014AE085
:1006F00030DF7C01E00EF11ECC2309F443C0C501BC
:10070000B4013ED79B01AC01C301B20103D94B0137
:100710005C0187E491E011DFE80EF91EC15090F111
:1007200020E030E040E251E4C501B4018AD72B015A
:100730003C01BDD94B01770FAA08BB08B7FE1DC00D
:100740006DE28EE691E023DD6C0166277727CB0111
:10075000681979098A099B094AE0FBDE8C0D9D1D09
:10076000E80EF91EC501B4010DD79B01AC01C30110
:10077000B201D0D84B015C01D1CF4AE0C501B40130
:10078000E8DEEECFC701CF911F910F91FF90EF9060
:10079000DF90CF90BF90AF909F908F907F906F90A1
:1007A0005F904F900895EF92FF920F931F93CF9316
:1007B000DF93EC017B018A0188819981009729F000
:1007C0002A813B812417350780F4B8016F5F7F4F82
:1007D000E6DA009789F0998388831B830A832C814A
:1007E0003D81232B11F4FC0110821D830C83B70182
:1007F000888199819CDB0BC088819981009709F0E1
:1008000045DA198218821D821C821B821A82CE014F
:10081000DF91CF911F910F91FF90EF9008952F924C
:100820003F924F925F926F927F928F929F92AF9280
:10083000BF92CF92DF92EF92FF920F931F93CF93CD
:10084000DF93CDB7DEB763970FB6F894DEBF0FBE68
:10085000CDBFE0910A02EE2309F4ADC13B8B2A8B98
:10086000598B488B6C877D878E879F878FB7F894CD
:1008700020916A0130916B0140916C0150916D01A2
:10088000288739874A875B878FBF8091ED019091D8
:10089000EE01A091EF01B091F001281B390B4A0B3A
:1008A0005B0BCA01B9016CD64B015C012C853D85FF
:1008B0004E855F856091230270912402809125020C
:1008C0009091260227D86B017C01AC019B01C501E8
:1008D000B401B7D620910102309102024091030287
:1008E0005091040218D8162F072F382E292E862F44
:1008F000902FA32DB22D8093010290930202A0931A
:100900000302B0930402309109023F83332309F4B8
:100910003EC02DEC3CEC4CE85FE360911B02709113
:100920001C0280911D0290911E028BD62B013C016E
:100930009B01AC01612F702F832D922D1DD687FD59
:100940001CC02DEC3CEC4CE85FE360911F02709101
:100950002002809121029091220273D62B013C014A
:100960009B01AC01612F702F832D922DD1D81816C9
:1009700024F0412E502E632C722CC201D30180939F
:10098000010290930202A0930302B093040220910B
:1009900001023091020240910302509104026091E1
:1009A0000F0270911002809111029091120249D6AB
:1009B0002B013C0120910B0230910C0240910D0261
:1009C00050910E02C701B6013CD69B01AC01C30198
:1009D000B201A1D72B013C012091F5013091F60124
:1009E0004091F7015091F801C701B60193D7A501D5
:1009F0009401F5D720911302309114024091150211
:100A0000509116021ED69B01AC01C301B20183D7DF
:100A100020911702309118024091190250911A0248
:100A2000DED7762E872E982EA92E4F81442309F4E7
:100A3000BDC060901B02B0901C0200911D0210917D
:100A40001E02262D3B2DA80197D587FD16C060906C
:100A50001F02B09020020091210210912202262D47
:100A60003B2DA801672D782D892D9A2D51D8181668
:100A700024F0672CB82C092D1A2D862D9B2DD8011A
:100A80008093F1019093F201A093F301B093F401EC
:100A9000C092F501D092F601E092F701F092F801D0
:100AA00088859985AA85BB858093ED019093EE0199
:100AB000A093EF01B093F001A889B98914968D91A4
:100AC0009C911597892B09F450C067E571E08D91D1
:100AD0009C9124DA892B09F048C01A8219821C8261
:100AE0001B821E821D82EA89FB89608171816115EA
:100AF000710529F044815581CE01019654DE42E012
:100B00006C857D858E859F8572DD8D819E81892B8B
:100B1000A1F06DE471E089819A8100DA892B69F492
:100B200089E491E00ADD6091F1017091F201809118
:100B3000F3019091F40142E05ADD89E491E0FDDC9B
:100B400060912302709124028091250290912602E7
:100B500042E04DDD6DE08EE691E019DB6AE08EE665
:100B600091E015DB89819A8191D86091F1017091B2
:100B7000F2018091F3019091F40163960FB6F8941D
:100B8000DEBF0FBECDBFDF91CF911F910F91FF90C0
:100B9000EF90DF90CF90BF90AF909F908F907F901D
:100BA0006F905F904F903F902F900895862F982DD3
:100BB000A92DBA2D65CF60E070E0CB01DECF1F928A
:100BC0000F920FB60F9211242F933F938F939F9301
:100BD000AF93BF9380916A0190916B01A0916C01DA
:100BE000B0916D013091690123E0230F2D3768F139
:100BF00026E8230F0296A11DB11D20936901809361
:100C00006A0190936B01A0936C01B0936D01809188
:100C1000650190916601A0916701B091680101960C
:100C2000A11DB11D8093650190936601A09367019A
:100C3000B0936801BF91AF919F918F913F912F9198
:100C40000F900FBE0F901F9018950196A11DB11D1A
:100C5000D4CF1F920F920FB60F9211242F933F9370
:100C60004F935F936F937F938F939F93AF93BF93B4
:100C7000EF93FF938EE691E069DAFF91EF91BF91D8
:100C8000AF919F918F917F916F915F914F913F9124
:100C90002F910F900FBE0F901F9018951F920F92DB
:100CA0000FB60F9211242F938F939F93EF93FF937F
:100CB000E0917E01F0917F018081E0918401F091CB
:100CC000850182FD1BC09081809187018F5F8F70AD
:100CD00020918801821741F0E0918701F0E0E2590C
:100CE000FE4F958F80938701FF91EF919F918F9198
:100CF0002F910F900FBE0F901F9018958081F4CF09
:100D00001F920F920FB60F9211242F933F934F9380
:100D10005F936F937F938F939F93AF93BF93CF9383
:100D2000EF93FF93C091A3008C2F8C7019F18FEF7C
:100D30008093D3018091D4019091D5019F779093B6
:100D4000D5018093D4018091A300846C8093A3008B
:100D5000FF91EF91CF91BF91AF919F918F917F9133
:100D60006F915F914F913F912F910F900FBE0F9018
:100D70001F901895C6FD28C08091D4019091D5018F
:100D800097FD22C0C7FF6FC0C1FFAFC02091CF0148
:100D90003091D0018091D1019091D201281739076B
:100DA00008F0A1C08091CF019091D0019C012F5FEC
:100DB0003F4F3093D0012093CF0185559E4FFC01CA
:100DC00080818093A0004FC0C0FF66C08091D40195
:100DD0009091D50197FF29C08091D4019091D501C0
:100DE0002091A0009695982F88279795879588271A
:100DF0009370822B9093D5018093D401E091D6011A
:100E0000F091D701309789F11092CC011092CB016B
:100E10006091D3018091D4019091D5010995811100
:100E200024C087E08093A40093CF8091A00090E03D
:100E30009093D5018093D4018091D3018F5F8093EB
:100E4000D3018091D4019091D501897F9927803F6A
:100E50009105A1F68091D4019091D501906890936D
:100E6000D5018093D40183E0DDCFC1FF10C0109283
:100E7000D2011092D101E091DA01F091DB013097BB
:100E800009F009951092D0011092CF01ECCF109289
:100E9000CE011092CD01E7CFC1FF15C0E091DC017A
:100EA000F091DD01309709F009958FEF8093D30120
:100EB0008091D4019091D5019F779093D501809333
:100EC000D40180E443CFE091D801F091D90130976B
:100ED00061F31092CC011092CB018091CD019091E1
:100EE000CE010995E2CF82E09DCF8091CD01909116
:100EF000CE01809790F48091CD019091CE019C011C
:100F00002F5F3F4F3093CE012093CD012091A00061
:100F100085559E4FFC012083A6CF86E083CFCF92DC
:100F2000DF92EF92FF920F931F93E82FF92F08C0E3
:100F300000C000C00000015011092109310949F128
:100F4000908196239417A1F308C000C000C0000050
:100F50000150110921093109E1F090819623941380
:100F6000F4CFC12CD12CE12CF12C0AC08FEFC81A80
:100F7000D80AE80AF80A0C151D052E053F0549F0A8
:100F800080818623841791F36C2D7D2D8E2D9F2DCE
:100F900004C060E070E080E090E01F910F91FF904E
:100FA000EF90DF90CF900895EEE6F1E01382128289
:100FB00088EE93E0A0E0B0E084839583A683B783B6
:100FC0002DE131E03183208322E830E0358724872A
:100FD00021E830E03787268726E830E0318B208B08
:100FE00025E830E0338B228B24E830E0358B248BEE
:100FF00020E830E0378B268B118E128E138E148EE4
:10100000EEEDF1E01382128284839583A683B78389
:101010008FE291E0918380838BEA91E095878487CA
:101020001092EC010895CF93DF93CDB7DEB72C97E4
:101030000FB6F894DEBF0FBECDBF789480B7836043
:1010400080BF83B7877F83BF83B7887F836083BF79
:1010500089B7816089BF8091C900887F8093C9006A
:101060008091CA008C7F81608093CA008091C90002
:10107000877E8093C9008091C900887F83608093B8
:10108000C9008EB5887F8EBD8FB58C7F81608FBD86
:101090008EB5877E8EBD8EB5887F83608EBD80E1E4
:1010A0008093670084EA809368008CEF80936600E9
:1010B00085B1876085B92F9A90E080E07ED38F3F1D
:1010C00009F090C190E080E078D3863321F066E3A8
:1010D00090E080E07AD381E090E06FD3882321F024
:1010E00060E081E090E071D386E3809301011EBC53
:1010F0001DBC1CBC8FB58E7F8FBD8FB582608FBD30
:101100008FB588608FBD8EB580618EBD8FB58062D2
:101110008FBD8FB58F7E8FBD8EB581608EBD8EB534
:101120008D7F8EBD8EB58B7F8EBD80E491E095BDA9
:1011300084BD19BC18BC61E083E092D862E087E00E
:101140008FD861E082E08CD881E0A5D760E080E0B4
:1011500087D860E081E084D8E091EA01F091EB016A
:1011600080910001880F8093A2001092A1008FEF60
:1011700080A78CEB8093A50081E08093EC0128E6AA
:1011800032E030AB27A729E132E036A725A740E0BF
:1011900050E060E87FE340930B0250930C026093B1
:1011A0000D0270930E0240930F0250931002609351
:1011B0001102709312024093130250931402609331
:1011C00015027093160240E050E060E271E4409333
:1011D0001702509318026093190270931A028093B9
:1011E0000A0240E050E060EA71E440931B02509331
:1011F0001C0260931D0270931E0240E050E060EA02
:1012000073E440931F025093200260932102709375
:1012100022028093090248E6242E42E0342EE3E4C1
:10122000F0E0649105E818EF22E030E040E089E367
:1012300090E075DE9B01AC0121153105410551059A
:1012400071F06F5F7F4F8F4F9F4F20E83EE340E08C
:1012500050E0D2D220E83EE340E050E039D32115FF
:1012600031054105510509F4C0C010910901112350
:1012700009F4BBC060E271EA87E090E0D6D2CA010F
:10128000B901212F30E050E040E0CFD2CA01B901CE
:101290002CE330E040E050E0AFD270930A0160935D
:1012A0000B01809164018823C9F1109101018091A3
:1012B0000001181709F49CC098EF910F903708F0BF
:1012C00097C01093000190E080E077D2181721F0CA
:1012D000612F90E080E079D2E091EA01F091EB019A
:1012E00080910001880F8093A2001092A1008FEFDF
:1012F00080A79CEB9093A50081E08093EC0130AA3D
:1013000027A689E192E096A785A7809102018F3FE9
:1013100009F071C081E0BFD6109264018091110183
:101320008F3F09F449C081E0CCD7BC01990F880BED
:10133000990B28D12AE037ED43E25CE382D16B01BF
:101340007C0180E0BED7BC01990F880B990B1AD1A4
:101350002AE037ED43E25CE374D12B013C0160915C
:101360001001062E000C770B880B990B0BD12DEC7E
:101370003CEC4CEC5DE365D14B015C01AC019B01A5
:10138000C701B6015ED120E030E048EC52E459D10B
:101390008ED37093050160930601A5019401C301EA
:1013A000B2014FD120E030E048EC52E44AD17FD383
:1013B000709307016093080180910E018F3FE9F45B
:1013C00060910F0170E090E080E020E431E040E0C7
:1013D00050E012D224E630E040E050E026D2C901CD
:1013E0008ED81DCF8093000180CE60E070E055CF95
:1013F000809301018ACF80E08ECF00910301602F9E
:1014000070E0762F662700910401060F172F111D3B
:101410000115110509F4AAC06091050170E0762F4D
:101420006627072E000C880B990BACD020E030E02B
:10143000A90171D26B017C016091060170E090E01E
:1014400080E0A0D0A701960166D22AE037ED43E202
:101450005CE3F7D04B015C01C0900701D09008011C
:10146000E0900A01F0900B01B80190E080E088D094
:1014700060932302709324028093250290932602A6
:1014800020E030E0A901C501B40176D087FD3CC061
:101490006C2D70E0762F6627072E000C880B990BB9
:1014A00071D020E030E0A90136D22B013C016D2D36
:1014B00070E090E080E066D0A30192012CD22AE097
:1014C00037ED43E25CE3BDD02B013C0120E030E08E
:1014D000A90152D087FD18C080920B0290920C0295
:1014E000A0920D02B0920E0240920F025092100292
:1014F0006092110270921202109213021092140262
:1015000010921502109216021A8219821C821B82F6
:101510001E821D8249E050E06BE471E0CE0101962D
:1015200042D918861F821A8619861C861B8647E0B8
:1015300050E065E571E0CE01079635D96E2D70E07B
:10154000762F66276F0D711D90E080E019D09E0107
:101550002F5F3F4FAE01495F5F4F61D9ADD28B0125
:101560008F81988593D389819A8190D310930C01B0
:1015700000930D01C80134CF40D008F481E00895F4
:10158000E89409C097FB3EF490958095709561951D
:101590007F4F8F4F9F4F9923A9F0F92F96E9BB27D3
:1015A0009395F695879577956795B795F111F8CF4F
:1015B000FAF4BB0F11F460FF1BC06F5F7F4F8F4FBA
:1015C0009F4F16C0882311F096E911C0772321F0B0
:1015D0009EE8872F762F05C0662371F096E8862F48
:1015E00070E060E02AF09A95660F771F881FDAF79F
:1015F000880F9695879597F90895990F0008550FCC
:10160000AA0BE0E8FEEF16161706E807F907C0F088
:1016100012161306E407F50798F0621B730B840B90
:10162000950B39F40A2661F0232B242B252B21F46A
:1016300008950A2609F4A140A6958FEF811D811D0A
:1016400008950AD080C071D028F076D018F0952384
:1016500009F062C067C0ABC087D0A8F39923D9F363
:101660005523C9F3950F50E0551FAA27EE27FF27F2
:10167000BB2700240894679520F4E20FF31FB41FE2
:101680000A1E220F331F441FAA1F6695A9F77795DC
:1016900030F4F30FB41F0A1E121E08F46395330FC3
:1016A000441FAA1F221F769599F7879520F4B40F3F
:1016B0000A1E121E631F440FAA1F221F331F869586
:1016C000A9F7862F712D602D11249F5750408AF065
:1016D000E1F088234AF0EE0FFF1FBB1F661F771F44
:1016E000881F91505040A9F79E3F510570F014C0DB
:1016F0005EC05F3FECF3983EDCF386957795679587
:10170000B795F795E7959F5FC1F7FE2B880F911D61
:101710009695879597F9089597F99F6780E870E007
:1017200060E008959FEF80EC089500240A94161657
:10173000170618060906089500240A9412161306BF
:10174000140605060895092E0394000C11F488234D
:1017500052F0BB0F40F4BF2B11F460FF04C06F5F69
:101760007F4F8F4F9F4F089557FD9058440F551F3F
:1017700059F05F3F71F04795880F97FB991F61F013
:101780009F3F79F087950895121613061406551F8A
:10179000F2CF4695F1DF08C0161617061806991FF6
:1017A000F1CF86957105610508940895E894BB27EB
:1017B00066277727CB0197F90895E199FECF9FBB64
:1017C0008EBBE09A99278DB30895262FE199FECF1D
:1017D0001CBA9FBB8EBB2DBB0FB6F894E29AE19A60
:1017E0000FBE01960895002480FD060E660F11F0CD
:1017F0008695D1F7802D0895EE27FF27AA27BB27CE
:1018000008C0A20FB31FE41FF51F220F331F441F90
:10181000551F969587957795679598F37040A9F72A
:10182000009799F7BD01CF010895052E97FB16F497
:1018300000940FD057FD05D04BD007FC02D046F4E2
:1018400008C050954095309521953F4F4F4F5F4FC1
:10185000089590958095709561957F4F8F4F9F4F1C
:1018600008952F923F924F925F926F927F928F9244
:101870009F92AF92BF92CF92DF92EF92FF920F931F
:101880001F93CF93DF93CDB7DEB7CA1BDB0B0FB629
:10189000F894DEBF0FBECDBF09942A8839884888E6
:1018A0005F846E847D848C849B84AA84B984C8847C
:1018B000DF80EE80FD800C811B81AA81B981CE0F73
:1018C000D11D0FB6F894DEBF0FBECDBFED01089558
:1018D000A1E21A2EAA1BBB1BFD010DC0AA1FBB1F34
:1018E000EE1FFF1FA217B307E407F50720F0A21BA6
:1018F000B30BE40BF50B661F771F881F991F1A9413
:1019000069F760957095809590959B01AC01BD013C
:10191000CF0108955058BB27AA270ED014CF05DF5A
:1019200030F00ADF20F031F49F3F11F41EF4FACEBC
:101930000EF4E095E7FBF0CEE92F16DF80F3BA173F
:10194000620773078407950718F071F49EF52ECF90
:101950000EF4E0950B2EBA2FA02D0B01B9019001CA
:101960000C01CA01A0011124FF27591B99F0593F0E
:1019700050F4503E68F11A16F040A22F232F342F56
:101980004427585FF3CF469537952795A795F040A4
:101990005395C9F77EF41F16BA0B620B730B840BB9
:1019A000BAF09150A1F0FF0FBB1F661F771F881F71
:1019B000C2F70EC0BA0F621F731F841F48F48795C9
:1019C00077956795B795F7959E3F08F0B3CF9395B8
:1019D000880F08F09927EE0F9795879508950CD0FA
:1019E000B2CEAADE40F0A1DE30F021F45F3F19F064
:1019F00093CE5111DCCE96CEB7DE98F39923C9F37E
:101A00005523B1F3951B550BBB27AA276217730704
:101A1000840738F09F5F5F4F220F331F441FAA1FB8
:101A2000A9F333D00E2E3AF0E0E830D09150504078
:101A3000E695001CCAF729D0FE2F27D0660F771F26
:101A4000881FBB1F261737074807AB07B0E809F008
:101A5000BB0B802DBF01FF2793585F4F2AF09E3F9D
:101A6000510568F059CEA3CE5F3FECF3983EDCF30E
:101A7000869577956795B795F7959F5FC9F7880F16
:101A8000911D9695879597F90895E1E0660F771F68
:101A9000881FBB1F621773078407BA0720F0621BF9
:101AA000730B840BBA0BEE1F88F7E095089504D0F2
:101AB0006894B1117CCE08955FDE88F09F5790F056
:101AC000B92F9927B751A0F0D1F0660F771F881F63
:101AD000991F1AF0BA95C9F712C0B13081F066DECD
:101AE000B1E0089563CE672F782F8827B85F39F06B
:101AF000B93FCCF3869577956795B395D9F73EF4C2
:101B000090958095709561957F4F8F4F9F4F089569
:101B100074DD08F48FEF089570DD880B990B08953C
:101B2000AA1BBB1B51E107C0AA1FBB1FA617B70703
:101B300010F0A61BB70B881F991F5A95A9F780951F
:101B40009095BC01CD010895EE0FFF1F0590F49113
:101B5000E02D09940F931F93CF93DF93823091056B
:101B600010F482E090E0E0912902F0912A0230E046
:101B700020E0B0E0A0E0309799F42115310509F498
:101B80004AC0281B390B24303105D8F58A819B8146
:101B90006115710589F1FB0193838283FE0111C0F8
:101BA000408151810281138148175907E0F048179D
:101BB000590799F4109761F012960C9312971396A7
:101BC0001C933296CF01DF91CF911F910F91089511
:101BD0000093290210932A02F4CF2115310551F008
:101BE0004217530738F0A901DB019A01BD01DF015B
:101BF000F801C1CFEF01F9CF90932A028093290217
:101C0000CDCFFE01E20FF31F819391932250310952
:101C100039832883D7CF2091270230912802232BA4
:101C200041F4209115013091160130932802209340
:101C3000270220911301309114012115310541F43F
:101C40002DB73EB74091170150911801241B350B59
:101C5000E0912702F0912802E217F307A0F42E1B6F
:101C60003F0B2817390778F0AC014E5F5F4F241700
:101C7000350748F04E0F5F1F50932802409327020C
:101C8000819391939FCFF0E0E0E09CCFCF93DF93DF
:101C90000097E9F0FC01329713821282A091290289
:101CA000B0912A02ED0130E020E01097A1F42081EC
:101CB0003181820F931F209127023091280228172B
:101CC000390709F061C0F0932802E0932702DF9101
:101CD000CF910895EA01CE17DF07E8F54A815B81CD
:101CE0009E0141155105B1F7E901FB83EA83499152
:101CF0005991C40FD51FEC17FD0761F480819181C4
:101D00000296840F951FE9019983888382819381CC
:101D10009B838A83F0E0E0E012968D919C9113976B
:101D20000097B9F52D913C911197CD010296820F44
:101D3000931F20912702309128022817390739F67E
:101D4000309751F510922A0210922902B09328027E
:101D5000A0932702BCCFD383C28340815181840FDB
:101D6000951FC817D90761F44E5F5F4F888199812D
:101D7000480F591F518340838A819B8193838283BB
:101D80002115310509F0B0CFF0932A02E093290222
:101D90009ECFFD01DC01C0CF13821282D7CFB0E00D
:101DA000A0E0E4EDFEE05FCD8C01009741F4CB01B3
:101DB000D1DE8C01C801CDB7DEB7E0E170CDFC010A
:101DC000E60FF71F9C0122503109E217F30708F4D0
:101DD00099C0D901CD91DC911197C617D70790F022
:101DE000C530D10538F3CE0104978617970710F355
:101DF000C61BD70B2297C193D1936D937C93CF01D0
:101E000045DFD8CF5B01AC1ABD0A4C018C0E9D1E7C
:101E1000A0912902B0912A02512C412CF12CE12CE5
:101E2000109731F580912702909128028815990525
:101E300009F05CC04616570608F058C0809113019F
:101E400090911401009741F48DB79EB7409117010E
:101E500050911801841B950BE817F90708F052C040
:101E6000F0932802E0932702F90171836083A2CFE7
:101E70008D919C91119712966C90129713967C906D
:101E80001397A815B90559F56C0142E0C40ED11C91
:101E9000CA14DB0420F1AC014A195B09DA0112967D
:101EA000159780F06282738251834083D9016D93CC
:101EB0007C93E114F10471F0D7011396FC93EE9337
:101EC000129778CF22968C0F9D1FF9019183808302
:101ED000F301EFCFF0932A02E09329026BCF48166B
:101EE000590608F42C017D01D3019ACFCB0132DED3
:101EF0007C01009739F0AE01B80107D0C801C6DEF9
:101F0000870158CF10E000E055CFFB01DC0102C093
:101F100001900D9241505040D8F70895FB01DC012B
:101F20008D91019080190110D9F3990B0895FB014F
:101F3000DC0101900D920020E1F70895F894FFCFA5
:101F4000360000000000FA018602000000000000D8
:101F500014000B00002B02800000000000C7006E80
:101F6000019B0079008D0011016A0000000000C68D
:101F70000196010E02F401DF01DE016E616E00695F
:101F80006E66006F7666002E002C006E6F766572AE
:0E1F9000626F7365006E6F67726170680000AB
:00000001FF
