:1000000024C048C047C046C045C044C043C042C0E9
:1000100041C040C03FC01DC63DC03CC03BC03AC00F
:1000200039C038C037C036C035C034C0E0C5BAC5E5
:1000300031C030C02FC02EC02DC055C601020408EB
:100040001020408004020108C70711241FBECFEF13
:10005000D2E0DEBFCDBF11E0A0E0B1E0EAEEFEE10C
:1000600002C005900D92AC35B107D9F722E0ACE59E
:10007000B1E001C01D92A932B207E1F710E0C5E27C
:10008000D0E003C02197FE0134DDC432D107D1F79F
:10009000BDD729CFB5CFEEE3F0E0E4919E2F909548
:1000A00081110CC02FB7F8948BB389238BBB80913F
:1000B00063009823909363002FBF08958FB7F8943F
:1000C0002BB3E22BEBBB2091630092239093630050
:1000D0008FBF0895FC01538D448D252F30E0842F70
:1000E00090E0821B930B541710F00F960895019720
:1000F0000895FC01918D828D981761F0A28DAE0F4D
:10010000BF2FB11D5D968C91928D9F5F9F70928FD6
:1001100090E008958FEF9FEF0895FC01918D828DFF
:10012000981731F0828DE80FF11D858D90E00895CC
:100130008FEF9FEF0895FC01918D228D892F90E024
:100140004096821B91098F7099270895FC01A48D18
:10015000A80FB92FB11D9D962C91848D90E001962A
:100160008F709927848FA689B7892C93A089B1892C
:100170008C91837080648C93938D848D981306C0CA
:100180000288F389E02D80818F7D80830895EF922E
:10019000FF920F931F93CF93DF93EC0181E0888F41
:1001A0009B8D8C8D98131AC0E889F989808185FF11
:1001B00015C09FB7F894EE89FF896083E889F989B3
:1001C00080818370806480839FBF81E090E0DF91B5
:1001D000CF911F910F91FF90EF900895F62E0B8D08
:1001E00010E00F5F1F4F0F701127E02E8C8D8E11C6
:1001F0000BC00FB607FCFACFE889F989808185FF2B
:10020000F5CFCE01A3DFF2CFEB8DEC0FFD2FF11D6B
:10021000F5A69FB7F8940B8FEA89FB8980818062ED
:10022000D2CFCF93DF93EC01888D8823B1F0AA89D8
:10023000BB89E889F9898C9185FD03C0808186FDA1
:100240000CC00FB607FCF7CF8C9185FFF2CF8081F1
:1002500085FFEDCFCE017ADFEACFDF91CF91089510
:10026000CF92DF92EF92FF920F931F93CF93DF9382
:100270006C01EB017B01E40EF51E10E000E0CE15F1
:10028000DF0561F06991D601ED91FC910190F0815B
:10029000E02DC6010995080F191FF1CFC801DF91A4
:1002A000CF911F910F91FF90EF90DF90CF90089525
:1002B000E82FF0E0E45CFF4FE4918E2F80952FB79C
:1002C00061110EC0F8949AB398239ABB9BB39823FC
:1002D0009BBB909163008923809363002FBF089597
:1002E000623069F4F8949AB389238ABB8BB38E2B5E
:1002F0008BBB80916300E82BE0936300EFCFF89411
:10030000909163008923809363008AB3E82BEABB52
:10031000E5CF98B19F7198B999B1907C892B89B933
:100320002E9A2E99FECF86B197B10895CF93DF9381
:10033000DC011C96ED91FC9126A137A120323105FC
:1003400010F5A6A1B7A1C6A1D7A120E230E02A1BD3
:100350003B0B4217530708F49A01DB01EC0FFD1F1A
:10036000B9016E0F7F1FE617F70719F04D91419302
:10037000FACFDC011C96ED91FC9186A197A1280F84
:10038000391F37A326A3DF91CF910895DC011C9676
:10039000ED91FC9186A197A1809768F486A197A121
:1003A0009C012F5F3F4F37A326A3E80FF91F6083FF
:1003B00081E090E0089590E080E008950895DC01E8
:1003C0001C96ED91FC9120A131A182A193A1281747
:1003D000390738F480A191A1E80FF91F808190E0DE
:1003E00008958FEF9FEF0895DC011C96ED91FC912D
:1003F00020A131A182A193A12817390760F480A11F
:1004000091A19C012F5F3F4F31A320A3E80FF91F5B
:10041000808190E008958FEF9FEF0895DC011C9696
:10042000ED91FC9182A193A120A131A1821B930B9C
:1004300008950F931F93CF93DF93EC0110E000E03A
:100440000C171D077CF48CED91E00530110544F488
:10045000CBDFF801E35AFE4F80830F5F1F4FF0CFD1
:10046000C3DFFBCFC130D10581F480915D018131C3
:1004700038F480935C01DF91CF911F910F91089523
:1004800010925D0110925C01F6CFC230D1059CF351
:10049000AEE5B1E0E0915D01F0E0EF5FFE4FC35AE1
:1004A000DE4FCA17DB0719F08D918193FACF81E0F7
:1004B00080936701E0CFCF93DF93D0E0C0E0E0917D
:1004C0005C01CE018F5F9E4FE80FF92FF11D608117
:1004D0008CED91E05BDF2196C131D10581F7DF9191
:1004E000CF91089530E020E097FD07C09C01813452
:1004F00041E0940714F020E431E039BD28BDBC018F
:10050000990F880B990B24E630E040E050E05DD96C
:1005100020E431E040E050E071D920930F010895CC
:10052000FC0101900020E9F73197AF01481B590BFE
:10053000BC018CE691E094CE8F929F92AF92BF92D5
:10054000EF92FF920F931F93CF93DF93CDB7DEB758
:10055000A1970FB6F894DEBF0FBECDBF162F042FA4
:1005600019A2423008F40AE07E0121E2E20EF11CF9
:10057000802E912CB12CA12C612FA501940191D931
:10058000802F622F19D9181B1A3014F5105DF7014E
:1005900012937F01122F732FCA01232B242B252B9B
:1005A00059F790E080E0309711F0CF01B9DFA196C4
:1005B0000FB6F894DEBF0FBECDBFDF91CF911F9174
:1005C0000F91FF90EF90BF90AF909F908F90089504
:1005D000195CDDCF4F925F926F927F928F929F92C4
:1005E000AF92BF92CF92DF92EF92FF920F931F9341
:1005F000CF936B017C01742EAC019B0176DA8823CA
:1006000091F08AE391E0CF911F910F91FF90EF90CD
:10061000DF90CF90BF90AF909F908F907F906F9022
:100620005F904F907DCF46015701E894B7F82FEFC8
:100630003FEF4FE75FE7C501B40157DA81110CC006
:100640002FEF3FEF4FE75FE7C501B4017ED71816E4
:100650001CF48EE391E0D7CF2FEF3FEF4FE75FE43D
:10066000C701B6013EDA18161CF482E491E0CBCF44
:100670002FEF3FEF4FE75FECC701B60166D787FD6D
:10068000F4CF20E030E0A901C701B6015ED710E049
:1006900000E087FF09C06DE28CE691E078DD8C0117
:1006A000F7FAF094F7F8F094C0E060E070E080E0D2
:1006B0009FE37C1639F020E030E040E251E478D945
:1006C000CF5FF7CFA70196010FD92B013C01DDD9F0
:1006D0004B015C014AE030DF7C01E00EF11ECC23CF
:1006E00009F443C0C501B40134D79B01AC01C30177
:1006F000B201F9D84B015C0186E491E011DFE80E0C
:10070000F91EC15090F120E030E040E251E4C50113
:10071000B40180D72B013C01B3D94B01770FAA0854
:10072000BB08B7FE1DC06DE28CE691E030DD6C01C8
:1007300066277727CB01681979098A099B094AE05E
:10074000FBDE8C0D9D1DE80EF91EC501B40103D71B
:100750009B01AC01C301B201C6D84B015C01D1CFF2
:100760004AE0C501B401E8DEEECFC701CF911F9189
:100770000F91FF90EF90DF90CF90BF90AF909F9040
:100780008F907F906F905F904F900895EF92FF92BF
:100790000F931F93CF93DF93EC017B018A01888134
:1007A0009981009729F02A813B812417350780F42D
:1007B000B8016F5F7F4FC8DA009789F0998388830B
:1007C0001B830A832C813D81232B11F4FC011082B1
:1007D0001D830C83B701888199817EDB0BC08881E2
:1007E0009981009709F027DA198218821D821C82EC
:1007F0001B821A82CE01DF91CF911F910F91FF9042
:10080000EF9008952F923F924F925F926F927F9256
:100810008F929F92AF92BF92CF92DF92EF92FF9210
:100820000F931F93CF93DF93CDB7DEB763970FB6C8
:10083000F894DEBF0FBECDBFE0910802EE2309F4AD
:10084000ADC13B8B2A8B598B488B6C877D878E87FC
:100850009F878FB7F894209168013091690140918A
:100860006A0150916B01288739874A875B878FBF60
:100870008091EB019091EC01A091ED01B091EE011E
:10088000281B390B4A0B5B0BCA01B90162D64B011D
:100890005C012C853D854E855F85609121027091BC
:1008A000220280912302909124021DD86B017C01C9
:1008B000AC019B01C501B401ADD62091FF0130917F
:1008C000000240910102509102020ED8162F072F0C
:1008D000382E292E862F902FA32DB22D8093FF0125
:1008E00090930002A0930102B0930202309107029C
:1008F0003F83332309F43EC02DEC3CEC4CE85FE32E
:100900006091190270911A0280911B0290911C0251
:1009100081D62B013C019B01AC01612F702F832DEF
:10092000922D13D687FD1CC02DEC3CEC4CE85FE308
:1009300060911D0270911E0280911F029091200211
:1009400069D62B013C019B01AC01612F702F832DD7
:10095000922DC7D8181624F0412E502E632C722CDD
:10096000C201D3018093FF0190930002A093010282
:10097000B09302022091FF013091000240910102E8
:100980005091020260910D0270910E0280910F024F
:10099000909110023FD62B013C0120910902309129
:1009A0000A0240910B0250910C02C701B60132D6E7
:1009B0009B01AC01C301B20197D72B013C012091EF
:1009C000F3013091F4014091F5015091F601C70116
:1009D000B60189D7A5019401EBD72091110230917E
:1009E0001202409113025091140214D69B01AC01E3
:1009F000C301B20179D720911502309116024091BE
:100A0000170250911802D4D7762E872E982EA92E31
:100A10004F81442309F4BDC060901902B0901A02BE
:100A200000911B0210911C02262D3B2DA8018DD593
:100A300087FD16C060901D02B0901E0200911F023B
:100A400010912002262D3B2DA801672D782D892D90
:100A50009A2D47D8181624F0672CB82C092D1A2D7A
:100A6000862D9B2DD8018093EF019093F001A093E8
:100A7000F101B093F201C092F301D092F401E0923F
:100A8000F501F092F60188859985AA85BB8580934A
:100A9000EB019093EC01A093ED01B093EE01A889D6
:100AA000B98914968D919C911597892B09F450C0A2
:100AB00066E571E08D919C9106DA892B09F048C0BA
:100AC0001A8219821C821B821E821D82EA89FB897E
:100AD000608171816115710529F044815581CE01D4
:100AE000019654DE42E06C857D858E859F8572DDA2
:100AF0008D819E81892BA1F06CE471E089819A81BE
:100B0000E2D9892B69F488E491E00ADD6091EF0174
:100B10007091F0018091F1019091F20142E05ADD73
:100B200088E491E0FDDC60912102709122028091C5
:100B300023029091240242E04DDD6DE08CE691E0CD
:100B400026DB6AE08CE691E022DB89819A8173D80A
:100B50006091EF017091F0018091F1019091F201AB
:100B600063960FB6F894DEBF0FBECDBFDF91CF9175
:100B70001F910F91FF90EF90DF90CF90BF90AF90BB
:100B80009F908F907F906F905F904F903F902F90AD
:100B90000895862F982DA92DBA2D65CF60E070E0BD
:100BA000CB01DECF1F920F920FB60F9211242F931D
:100BB0003F934F935F936F937F938F939F93AF93E5
:100BC000BF93EF93FF938CE691E0C0DAFF91EF9132
:100BD000BF91AF919F918F917F916F915F914F9155
:100BE0003F912F910F900FBE0F901F9018951F925D
:100BF0000F920FB60F9211242F938F939F93EF9321
:100C0000FF93E0917C01F0917D018081E091820170
:100C1000F091830182FD1BC09081809185018F5FDF
:100C20008F7020918601821741F0E0918501F0E0FC
:100C3000E459FE4F958F80938501FF91EF919F912D
:100C40008F912F910F900FBE0F901F90189580815C
:100C5000F4CF1F920F920FB60F9211242F933F9350
:100C60008F939F93AF93BF93809168019091690197
:100C7000A0916A01B0916B013091660126E0230FCB
:100C80002D3768F129E8230F0396A11DB11D20938C
:100C900066018093680190936901A0936A01B09303
:100CA0006B018091620190916301A0916401B09108
:100CB00065010196A11DB11D8093620190936301AE
:100CC000A0936401B0936501BF91AF919F918F9103
:100CD0003F912F910F900FBE0F901F901895029685
:100CE000A11DB11DD4CF1F920F920FB60F921124E8
:100CF0002F933F934F935F936F937F938F939F9324
:100D0000AF93BF93CF93EF93FF93C091A3008C2F2A
:100D10008C7019F18FEF8093D1018091D201909165
:100D2000D3019F779093D3018093D2018091A30048
:100D3000846C8093A300FF91EF91CF91BF91AF910D
:100D40009F918F917F916F915F914F913F912F91E3
:100D50000F900FBE0F901F901895C6FD28C0809170
:100D6000D2019091D30197FD22C0C7FF6FC0C1FF90
:100D7000AFC02091CD013091CE018091CF019091F3
:100D8000D0012817390708F0A1C08091CD019091BA
:100D9000CE019C012F5F3F4F3093CE012093CD01B8
:100DA00087559E4FFC0180818093A0004FC0C0FFFB
:100DB00066C08091D2019091D30197FF29C08091A4
:100DC000D2019091D3012091A0009695982F882769
:100DD0009795879588279370822B9093D301809362
:100DE000D201E091D401F091D501309789F11092B0
:100DF000CA011092C9016091D1018091D2019091F4
:100E0000D3010995811124C087E08093A40093CF7A
:100E10008091A00090E09093D3018093D2018091C3
:100E2000D1018F5F8093D1018091D2019091D30144
:100E3000897F9927803F9105A1F68091D2019091F9
:100E4000D30190689093D3018093D20183E0DDCFEA
:100E5000C1FF10C01092D0011092CF01E091D801D3
:100E6000F091D901309709F009951092CE011092B6
:100E7000CD01ECCF1092CC011092CB01E7CFC1FF96
:100E800015C0E091DA01F091DB01309709F0099586
:100E90008FEF8093D1018091D2019091D3019F7700
:100EA0009093D3018093D20180E443CFE091D601A7
:100EB000F091D701309761F31092CA011092C901E5
:100EC0008091CB019091CC010995E2CF82E09DCF3A
:100ED0008091CB019091CC01809790F48091CB01CF
:100EE0009091CC019C012F5F3F4F3093CC01209318
:100EF000CB012091A00087559E4FFC012083A6CFF7
:100F000086E083CFCF92DF92EF92FF920F931F93F1
:100F1000E82FF92F08C000C000C0000001501109DF
:100F20002109310949F1908196239417A1F308C052
:100F300000C000C000000150110921093109E1F091
:100F4000908196239413F4CFC12CD12CE12CF12C59
:100F50000AC08FEFC81AD80AE80AF80A0C151D054E
:100F60002E053F0549F080818623841791F36C2D6F
:100F70007D2D8E2D9F2D04C060E070E080E090E01C
:100F80001F910F91FF90EF90DF90CF900895ECE6C6
:100F9000F1E01382128288EE93E0A0E0B0E0848357
:100FA0009583A683B7832CE131E03183208322E847
:100FB00030E03587248721E830E03787268726E828
:100FC00030E0318B208B25E830E0338B228B24E816
:100FD00030E0358B248B20E830E0378B268B118E68
:100FE000128E138E148EECEDF1E013821282848344
:100FF0009583A683B7838EE291E09183808389EA0B
:1010000091E0958784871092EA010895CF93DF934A
:10101000CDB7DEB72C970FB6F894DEBF0FBECDBFAD
:1010200081E2E1E0F0E08093570084918150809369
:1010300074000000789480B7836080BF83B7877F97
:1010400083BF83B7887F836083BF89B7816089BF8F
:101050008091C900887F8093C9008091CA008C7FED
:1010600081608093CA008091C900877E8093C90007
:101070008091C900887F83608093C9008EB5887F86
:101080008EBD8FB58C7F81608FBD8EB5877E8EBD06
:101090008EB5887F83608EBD80E18093670084EA8F
:1010A000809368008CEF8093660085B1887F8660AE
:1010B00085B92F9A90E080E069D38F3F09F081C114
:1010C00090E080E063D3863321F066E390E080E037
:1010D00065D381E090E05AD3882321F060E081E07D
:1010E00090E05CD386E3809301011EBC1DBC1CBC58
:1010F0008FB58E7F8FBD8FB582608FBD8FB58860B5
:101100008FBD8EB580618EBD8FB580628FBD8FB56E
:101110008F7E8FBD8EB581608EBD8EB58D7F8EBD6D
:101120008EB58B7F8EBD80E491E095BD84BD19BCEA
:1011300018BC61E083E0BCD862E087E0B9D861E028
:1011400082E0B6D881E0A7D760E080E0B1D860E067
:1011500081E0AED8E091E801F091E90180910001D1
:10116000880F8093A2001092A1008FEF80A78CEBD4
:101170008093A50081E08093EA012BE532E030AB5B
:1011800027A729E132E036A725A740E050E060E834
:101190007FE34093090250930A0260930B0270931D
:1011A0000C0240930D0250930E0260930F02709355
:1011B0001002409311025093120260931302709335
:1011C000140240E050E060E271E440931502509355
:1011D000160260931702709318028093080240E091
:1011E00050E060EA71E44093190250931A02609350
:1011F0001B0270931C0240E050E060EA73E44093ED
:101200001D0250931E0260931F0270932002809370
:1012100007024BE5242E42E0342EE3E4F0E0649133
:101220000CE818E823E030E040E089E390E06ADE73
:101230009B01AC01211531054105510571F06F5F2E
:101240007F4F8F4F9F4F20E83EE340E050E0BDD2FC
:1012500020E43FE140E050E024D360E271EA87E01F
:1012600090E0CCD2CA01B90100910901202F30E0F1
:1012700050E040E0C3D2CA01B9012CE330E040E0C5
:1012800050E0A3D270930A0160930B018091670133
:10129000882399F11091010180910001181721F123
:1012A0001093000190E080E071D2181721F0612FB7
:1012B00090E080E073D2E091E801F091E901809143
:1012C0000001880F8093A2001092A1008FEF80A7E9
:1012D0009CEB9093A50081E08093EA0130AA27A6B9
:1012E00089E192E096A785A7809102018F3F09F0DE
:1012F0006BC081E0D0D610926701809111018F3FC1
:1013000009F449C081E005D8BC01990F880B990BFD
:1013100022D12AE037ED43E25CE37CD16B017C0112
:1013200080E0F7D7BC01990F880B990B14D12AE004
:1013300037ED43E25CE36ED12B013C01609110017B
:10134000062E000C770B880B990B05D12DEC3CEC8D
:101350004CEC5DE35FD14B015C01AC019B01C7012B
:10136000B60158D120E030E048EC52E453D188D3A4
:101370007093050160930601A5019401C301B201B8
:1013800049D120E030E048EC52E444D179D3709365
:1013900007016093080180910E018F3FB9F46091BD
:1013A0000F0170E090E080E020E431E040E050E0A8
:1013B0000CD224E630E040E050E020D2C90192D8BF
:1013C0002CCF809300018FCE80E094CF0091030159
:1013D000602F70E0762F662700910401060F172F0B
:1013E000111D0115110509F4AAC06091050170E0F5
:1013F000762F6627072E000C880B990BACD020E0C7
:1014000030E0A90171D26B017C016091060170E0AE
:1014100090E080E0A0D0A701960166D22AE037EDE7
:1014200043E25CE3F7D04B015C01C0900701D09030
:101430000801E0900A01F0900B01B80190E080E013
:1014400088D06093210270932202809323029093AC
:10145000240220E030E0A901C501B40176D087FD67
:101460003CC06C2D70E0762F6627072E000C880B91
:10147000990B71D020E030E0A90136D22B013C015C
:101480006D2D70E090E080E066D0A30192012CD237
:101490002AE037ED43E25CE3BDD02B013C0120E0C4
:1014A00030E0A90152D087FD18C0809209029092C5
:1014B0000A02A0920B02B0920C0240920D025092CE
:1014C0000E0260920F02709210021092110210929E
:1014D000120210921302109214021A8219821C82B4
:1014E0001B821E821D8249E050E06AE471E0CE0159
:1014F00001964CD918861F821A8619861C861B866F
:1015000047E050E064E571E0CE0107963FD96E2DCB
:1015100070E0762F66276F0D711D90E080E019D086
:101520009E012F5F3F4FAE01495F5F4F6BD9ADD238
:101530008B018F8198857FD389819A817CD3109389
:101540000C0100930D01C8013ACF40D008F481E0AE
:101550000895E89409C097FB3EF4909580957095A6
:1015600061957F4F8F4F9F4F9923A9F0F92F96E9EF
:10157000BB279395F695879577956795B795F11164
:10158000F8CFFAF4BB0F11F460FF1BC06F5F7F4F01
:101590008F4F9F4F16C0882311F096E911C0772313
:1015A00021F09EE8872F762F05C0662371F096E81C
:1015B000862F70E060E02AF09A95660F771F881FEB
:1015C000DAF7880F9695879597F90895990F00088F
:1015D000550FAA0BE0E8FEEF16161706E807F90705
:1015E000C0F012161306E407F50798F0621B730BA0
:1015F000840B950B39F40A2661F0232B242B252B21
:1016000021F408950A2609F4A140A6958FEF811DC3
:10161000811D08950AD080C071D028F076D018F0CE
:10162000952309F062C067C0ABC087D0A8F39923A7
:10163000D9F35523C9F3950F50E0551FAA27EE277C
:10164000FF27BB2700240894679520F4E20FF31FBF
:10165000B41F0A1E220F331F441FAA1F6695A9F745
:10166000779530F4F30FB41F0A1E121E08F4639529
:10167000330F441FAA1F221F769599F7879520F4F0
:10168000B40F0A1E121E631F440FAA1F221F331F0E
:101690008695A9F7862F712D602D11249F575040F4
:1016A0008AF0E1F088234AF0EE0FFF1FBB1F661F90
:1016B000771F881F91505040A9F79E3F510570F049
:1016C00014C05EC05F3FECF3983EDCF386957795DF
:1016D0006795B795F795E7959F5FC1F7FE2B880F44
:1016E000911D9695879597F9089597F99F6780E8DA
:1016F00070E060E008959FEF80EC089500240A9464
:101700001616170618060906089500240A941216DC
:101710001306140605060895092E0394000C11F40F
:10172000882352F0BB0F40F4BF2B11F460FF04C0BC
:101730006F5F7F4F8F4F9F4F089557FD9058440F15
:10174000551F59F05F3F71F04795880F97FB991F20
:1017500061F09F3F79F087950895121613061406DD
:10176000551FF2CF4695F1DF08C01616170618066A
:10177000991FF1CF86957105610508940895E89445
:10178000BB2766277727CB0197F90895E199FECF0C
:101790009FBB8EBBE09A99278DB30895262FE199C0
:1017A000FECF1CBA9FBB8EBB2DBB0FB6F894E29A3E
:1017B000E19A0FBE01960895002480FD060E660F83
:1017C00011F08695D1F7802D0895EE27FF27AA27DF
:1017D000BB2708C0A20FB31FE41FF51F220F331F42
:1017E000441F551F969587957795679598F3704098
:1017F000A9F7009799F7BD01CF010895052E97FB32
:1018000016F400940FD057FD05D04BD007FC02D042
:1018100046F408C050954095309521953F4F4F4F65
:101820005F4F089590958095709561957F4F8F4F8C
:101830009F4F08952F923F924F925F926F927F92A7
:101840008F929F92AF92BF92CF92DF92EF92FF92D0
:101850000F931F93CF93DF93CDB7DEB7CA1BDB0B7C
:101860000FB6F894DEBF0FBECDBF09942A88398821
:1018700048885F846E847D848C849B84AA84B98428
:10188000C884DF80EE80FD800C811B81AA81B98134
:10189000CE0FD11D0FB6F894DEBF0FBECDBFED0148
:1018A0000895A1E21A2EAA1BBB1BFD010DC0AA1FA1
:1018B000BB1FEE1FFF1FA217B307E407F50720F0B9
:1018C000A21BB30BE40BF50B661F771F881F991F34
:1018D0001A9469F760957095809590959B01AC017D
:1018E000BD01CF0108955058BB27AA270ED014CFB1
:1018F00005DF30F00ADF20F031F49F3F11F41EF4D1
:10190000FACE0EF4E095E7FBF0CEE92F16DF80F378
:10191000BA17620773078407950718F071F49EF5EC
:101920002ECF0EF4E0950B2EBA2FA02D0B01B9018E
:1019300090010C01CA01A0011124FF27591B99F045
:10194000593F50F4503E68F11A16F040A22F232F51
:10195000342F4427585FF3CF469537952795A795A1
:10196000F0405395C9F77EF41F16BA0B620B730B48
:10197000840BBAF09150A1F0FF0FBB1F661F771FB9
:10198000881FC2F70EC0BA0F621F731F841F48F46E
:10199000879577956795B795F7959E3F08F0B3CFF4
:1019A0009395880F08F09927EE0F979587950895DE
:1019B0000CD0B2CEAADE40F0A1DE30F021F45F3FC1
:1019C00019F093CE5111DCCE96CEB7DE98F3992361
:1019D000C9F35523B1F3951B550BBB27AA276217F3
:1019E0007307840738F09F5F5F4F220F331F441F38
:1019F000AA1FA9F333D00E2E3AF0E0E830D0915070
:101A00005040E695001CCAF729D0FE2F27D0660F5C
:101A1000771F881FBB1F261737074807AB07B0E89B
:101A200009F0BB0B802DBF01FF2793585F4F2AF0B1
:101A30009E3F510568F059CEA3CE5F3FECF3983E30
:101A4000DCF3869577956795B795F7959F5FC9F70E
:101A5000880F911D9695879597F90895E1E0660F97
:101A6000771F881FBB1F621773078407BA0720F010
:101A7000621B730B840BBA0BEE1F88F7E095089579
:101A800004D06894B1117CCE08955FDE88F09F5732
:101A900090F0B92F9927B751A0F0D1F0660F771FBA
:101AA000881F991F1AF0BA95C9F712C0B13081F09A
:101AB00066DEB1E0089563CE672F782F8827B85F80
:101AC00039F0B93FCCF3869577956795B395D9F7FB
:101AD0003EF490958095709561957F4F8F4F9F4F05
:101AE000089574DD08F48FEF089570DD880B990B6D
:101AF0000895EE0FFF1F0590F491E02D09940F93C8
:101B00001F93CF93DF938230910510F482E090E031
:101B1000E0912702F091280230E020E0B0E0A0E060
:101B2000309799F42115310509F44AC0281B390B67
:101B300024303105D8F58A819B816115710589F1C1
:101B4000FB0193838283FE0111C040815181028198
:101B5000138148175907E0F04817590799F410976F
:101B600061F012960C93129713961C933296CF0144
:101B7000DF91CF911F910F91089500932702109349
:101B80002802F4CF2115310551F04217530738F0E0
:101B9000A901DB019A01BD01DF01F801C1CFEF010D
:101BA000F9CF9093280280932702CDCFFE01E20F58
:101BB000F31F819391932250310939832883D7CF22
:101BC0002091250230912602232B41F4209114010B
:101BD00030911501309326022093250220911201A5
:101BE000309113012115310541F42DB73EB74091D5
:101BF000160150911701241B350BE0912502F0913D
:101C00002602E217F307A0F42E1B3F0B2817390713
:101C100078F0AC014E5F5F4F2417350748F04E0F48
:101C20005F1F5093260240932502819391939FCF8B
:101C3000F0E0E0E09CCFCF93DF930097E9F0FC0168
:101C4000329713821282A0912702B0912802ED01EF
:101C500030E020E01097A1F420813181820F931FA2
:101C600020912502309126022817390709F061C01A
:101C7000F0932602E0932502DF91CF910895EA01C7
:101C8000CE17DF07E8F54A815B819E0141155105BA
:101C9000B1F7E901FB83EA8349915991C40FD51F3C
:101CA000EC17FD0761F4808191810296840F951FE6
:101CB000E90199838883828193819B838A83F0E001
:101CC000E0E012968D919C9113970097B9F52D91B4
:101CD0003C911197CD010296820F931F209125020E
:101CE000309126022817390739F6309751F51092AE
:101CF000280210922702B0932602A0932502BCCF9F
:101D0000D383C28340815181840F951FC817D9079F
:101D100061F44E5F5F4F88819981480F591F51834D
:101D200040838A819B81938382832115310509F049
:101D3000B0CFF0932802E09327029ECFFD01DC0193
:101D4000C0CF13821282D7CFB0E0A0E0E9EAFEE074
:101D500073CD8C01009741F4CB01D1DE8C01C80119
:101D6000CDB7DEB7E0E184CDFC01E60FF71F9C01A3
:101D700022503109E217F30708F499C0D901CD9137
:101D8000DC911197C617D70790F0C530D10538F30D
:101D9000CE0104978617970710F3C61BD70B22971F
:101DA000C193D1936D937C93CF0145DFD8CF5B0175
:101DB000AC1ABD0A4C018C0E9D1EA0912702B09159
:101DC0002802512C412CF12CE12C109731F58091F7
:101DD0002502909126028815990509F05CC04616E7
:101DE000570608F058C08091120190911301009796
:101DF00041F48DB79EB74091160150911701841B95
:101E0000950BE817F90708F052C0F0932602E0930B
:101E10002502F90171836083A2CF8D919C91119766
:101E200012966C90129713967C901397A815B9058B
:101E300059F56C0142E0C40ED11CCA14DB0420F138
:101E4000AC014A195B09DA011296159780F062829B
:101E5000738251834083D9016D937C93E114F10423
:101E600071F0D7011396FC93EE93129778CF2296D8
:101E70008C0F9D1FF90191838083F301EFCFF093C5
:101E80002802E09327026BCF4816590608F42C016C
:101E90007D01D3019ACFCB0132DE7C01009739F06E
:101EA000AE01B80107D0C801C6DE870158CF10E0E7
:101EB00000E055CFFB01DC0102C001900D924150C2
:101EC0005040D8F70895FB01DC018D9101908019F5
:101ED0000110D9F3990B0895FB01DC0101900D92DB
:0A1EE0000020E1F70895F894FFCF09
:101EEA00360000000000FA0186020000000000002F
:101EFA00140000002902800000000000C700300121
:101F0A009B0079008D0011016A0000000000C601E3
:101F1A0096010E02F401DF01DE016E616E00696E48
:101F2A0066006F7666002E002C006E6F7665726210
:0C1F3A006F7365006E6F67726170680065
:00000001FF
